{
  "_format": "hh-sol-artifact-1",
  "contractName": "Bank",
  "sourceName": "contracts/Bank.sol",
  "abi": [
    {
      "inputs": [],
      "name": "Bank__InvalidDeposite",
      "type": "error"
    },
    {
      "inputs": [],
      "name": "Bank__NotEnoughBalance",
      "type": "error"
    },
    {
      "inputs": [],
      "name": "Bank__WithdarwFailed",
      "type": "error"
    },
    {
      "anonymous": false,
      "inputs": [
        {
          "indexed": true,
          "internalType": "address",
          "name": "user",
          "type": "address"
        },
        {
          "indexed": false,
          "internalType": "uint256",
          "name": "amount",
          "type": "uint256"
        }
      ],
      "name": "Bank__Deposite",
      "type": "event"
    },
    {
      "anonymous": false,
      "inputs": [
        {
          "indexed": true,
          "internalType": "address",
          "name": "user",
          "type": "address"
        },
        {
          "indexed": false,
          "internalType": "uint256",
          "name": "amount",
          "type": "uint256"
        }
      ],
      "name": "Bank__Withdraw",
      "type": "event"
    },
    {
      "inputs": [],
      "name": "deposite",
      "outputs": [],
      "stateMutability": "payable",
      "type": "function"
    },
    {
      "inputs": [
        {
          "internalType": "address",
          "name": "",
          "type": "address"
        }
      ],
      "name": "s_balance",
      "outputs": [
        {
          "internalType": "uint256",
          "name": "",
          "type": "uint256"
        }
      ],
      "stateMutability": "view",
      "type": "function"
    },
    {
      "inputs": [
        {
          "internalType": "uint256",
          "name": "_amount",
          "type": "uint256"
        }
      ],
      "name": "withdraw",
      "outputs": [],
      "stateMutability": "nonpayable",
      "type": "function"
    }
  ],
  "bytecode": "0x6080604052348015600f57600080fd5b5061059a8061001f6000396000f3fe6080604052600436106100345760003560e01c80632e1a7d4d14610039578063a50ec32614610062578063e7394daf1461006c575b600080fd5b34801561004557600080fd5b50610060600480360381019061005b91906103a5565b6100a9565b005b61006a61026b565b005b34801561007857600080fd5b50610093600480360381019061008e9190610430565b610352565b6040516100a0919061046c565b60405180910390f35b806000803373ffffffffffffffffffffffffffffffffffffffff1673ffffffffffffffffffffffffffffffffffffffff168152602001908152602001600020541015610121576040517ff7e6704600000000000000000000000000000000000000000000000000000000815260040160405180910390fd5b60003373ffffffffffffffffffffffffffffffffffffffff1682604051610147906104b8565b60006040518083038185875af1925050503d8060008114610184576040519150601f19603f3d011682016040523d82523d6000602084013e610189565b606091505b50509050806101c4576040517fcd4a770a00000000000000000000000000000000000000000000000000000000815260040160405180910390fd5b816000803373ffffffffffffffffffffffffffffffffffffffff1673ffffffffffffffffffffffffffffffffffffffff168152602001908152602001600020600082825461021291906104fc565b925050819055503373ffffffffffffffffffffffffffffffffffffffff167f2eba2775efb51f657ddd8adcf46a8c53c62c977271f884be289b3bf1e5ab4de38360405161025f919061046c565b60405180910390a25050565b670de0b6b3a76400003410156102ad576040517f8c1f3aa400000000000000000000000000000000000000000000000000000000815260040160405180910390fd5b346000803373ffffffffffffffffffffffffffffffffffffffff1673ffffffffffffffffffffffffffffffffffffffff16815260200190815260200160002060008282546102fb9190610530565b925050819055503373ffffffffffffffffffffffffffffffffffffffff167fcbcc279e90b4b48175d607b5831378de4f103fa16697a9b51ea721347bae92e534604051610348919061046c565b60405180910390a2565b60006020528060005260406000206000915090505481565b600080fd5b6000819050919050565b6103828161036f565b811461038d57600080fd5b50565b60008135905061039f81610379565b92915050565b6000602082840312156103bb576103ba61036a565b5b60006103c984828501610390565b91505092915050565b600073ffffffffffffffffffffffffffffffffffffffff82169050919050565b60006103fd826103d2565b9050919050565b61040d816103f2565b811461041857600080fd5b50565b60008135905061042a81610404565b92915050565b6000602082840312156104465761044561036a565b5b60006104548482850161041b565b91505092915050565b6104668161036f565b82525050565b6000602082019050610481600083018461045d565b92915050565b600081905092915050565b50565b60006104a2600083610487565b91506104ad82610492565b600082019050919050565b60006104c382610495565b9150819050919050565b7f4e487b7100000000000000000000000000000000000000000000000000000000600052601160045260246000fd5b60006105078261036f565b91506105128361036f565b925082820390508181111561052a576105296104cd565b5b92915050565b600061053b8261036f565b91506105468361036f565b925082820190508082111561055e5761055d6104cd565b5b9291505056fea26469706673582212207d6d1820f2b7be2a32fefc31badbfc6ed00c7ea34e8c6654087d5dae63bdfc7664736f6c634300081c0033",
  "linkReferences": {},
  "deployedLinkReferences": {}
}